{
  "contractName": "MultiSigWallet",
  "abi": [
    {
      "inputs": [],
      "payable": false,
      "type": "constructor"
    },
    {
      "payable": true,
      "type": "fallback"
    },
    {
      "anonymous": false,
      "inputs": [
        {
          "indexed": true,
          "name": "source",
          "type": "address"
        },
        {
          "indexed": true,
          "name": "amount",
          "type": "uint256"
        }
      ],
      "name": "DepositFunds",
      "type": "event"
    },
    {
      "anonymous": false,
      "inputs": [
        {
          "indexed": true,
          "name": "source",
          "type": "address"
        },
        {
          "indexed": true,
          "name": "destination",
          "type": "address"
        },
        {
          "indexed": true,
          "name": "value",
          "type": "uint256"
        },
        {
          "indexed": false,
          "name": "transactionID",
          "type": "uint256"
        }
      ],
      "name": "TransactionCreated",
      "type": "event"
    },
    {
      "anonymous": false,
      "inputs": [
        {
          "indexed": true,
          "name": "source",
          "type": "address"
        },
        {
          "indexed": true,
          "name": "destination",
          "type": "address"
        },
        {
          "indexed": true,
          "name": "value",
          "type": "uint256"
        },
        {
          "indexed": false,
          "name": "transactionID",
          "type": "uint256"
        }
      ],
      "name": "TransactionCompleted",
      "type": "event"
    },
    {
      "anonymous": false,
      "inputs": [
        {
          "indexed": true,
          "name": "by",
          "type": "address"
        },
        {
          "indexed": true,
          "name": "transactionID",
          "type": "uint256"
        }
      ],
      "name": "TransactionSigned",
      "type": "event"
    },
    {
      "anonymous": false,
      "inputs": [
        {
          "indexed": true,
          "name": "addr",
          "type": "address"
        }
      ],
      "name": "OwnerAdded",
      "type": "event"
    },
    {
      "anonymous": false,
      "inputs": [
        {
          "indexed": true,
          "name": "addr",
          "type": "address"
        }
      ],
      "name": "OwnerRemoved",
      "type": "event"
    },
    {
      "constant": false,
      "inputs": [
        {
          "name": "newOwner",
          "type": "address"
        }
      ],
      "name": "addOwner",
      "outputs": [],
      "payable": false,
      "type": "function"
    },
    {
      "constant": false,
      "inputs": [
        {
          "name": "existingOwner",
          "type": "address"
        }
      ],
      "name": "removeOwner",
      "outputs": [],
      "payable": false,
      "type": "function"
    },
    {
      "constant": false,
      "inputs": [
        {
          "name": "amount",
          "type": "uint256"
        }
      ],
      "name": "withdraw",
      "outputs": [],
      "payable": false,
      "type": "function"
    },
    {
      "constant": false,
      "inputs": [
        {
          "name": "destination",
          "type": "address"
        },
        {
          "name": "value",
          "type": "uint256"
        }
      ],
      "name": "transferTo",
      "outputs": [],
      "payable": false,
      "type": "function"
    },
    {
      "constant": true,
      "inputs": [],
      "name": "getPendingTransactions",
      "outputs": [
        {
          "name": "",
          "type": "uint256[]"
        }
      ],
      "payable": false,
      "type": "function"
    },
    {
      "constant": false,
      "inputs": [
        {
          "name": "transactionID",
          "type": "uint256"
        }
      ],
      "name": "signTransaction",
      "outputs": [],
      "payable": false,
      "type": "function"
    },
    {
      "constant": false,
      "inputs": [
        {
          "name": "transactionId",
          "type": "uint256"
        }
      ],
      "name": "deleteTransaction",
      "outputs": [],
      "payable": false,
      "type": "function"
    },
    {
      "constant": true,
      "inputs": [],
      "name": "walletBalance",
      "outputs": [
        {
          "name": "",
          "type": "uint256"
        }
      ],
      "payable": false,
      "type": "function"
    }
  ],
  "bytecode": "0x6060604052341561000f57600080fd5b5b336000806101000a81548173ffffffffffffffffffffffffffffffffffffffff021916908373ffffffffffffffffffffffffffffffffffffffff1602179055505b5b611149806100616000396000f3006060604052361561008b576000357c0100000000000000000000000000000000000000000000000000000000900463ffffffff168062e9c006146100d3578063173825d9146100f65780632ccb1b301461012f5780632e1a7d4d146101715780635d9ec210146101945780637065cb48146101b7578063cd0a314b146101f0578063d11db83f14610219575b5b343373ffffffffffffffffffffffffffffffffffffffff167fd241e73300212f6df233a8e6d3146b88a9d4964e06621d54b5ff6afeba7b1b8860405160405180910390a35b005b34156100de57600080fd5b6100f46004808035906020019091905050610284565b005b341561010157600080fd5b61012d600480803573ffffffffffffffffffffffffffffffffffffffff1690602001909190505061049b565b005b341561013a57600080fd5b61016f600480803573ffffffffffffffffffffffffffffffffffffffff169060200190919080359060200190919050506105ef565b005b341561017c57600080fd5b6101926004808035906020019091905050610896565b005b341561019f57600080fd5b6101b560048080359060200190919050506109b8565b005b34156101c257600080fd5b6101ee600480803573ffffffffffffffffffffffffffffffffffffffff16906020019091905050610daf565b005b34156101fb57600080fd5b610203610f03565b6040518082815260200191505060405180910390f35b341561022457600080fd5b61022c610f23565b6040518080602001828103825283818151815260200191508051906020019060200280838360005b838110156102705780820151818401525b602081019050610254565b505050509050019250505060405180910390f35b6000806000809054906101000a900473ffffffffffffffffffffffffffffffffffffffff1673ffffffffffffffffffffffffffffffffffffffff163373ffffffffffffffffffffffffffffffffffffffff161480610330575060018060003373ffffffffffffffffffffffffffffffffffffffff1673ffffffffffffffffffffffffffffffffffffffff16815260200190815260200160002060009054906101000a900460ff1660ff16145b151561033b57600080fd5b60009150600090505b6003805490508110156103e0578160ff16600114156103a65760038181548110151561036c57fe5b906000526020600020900160005b505460036001830381548110151561038e57fe5b906000526020600020900160005b50819055506103d2565b6003818154811015156103b557fe5b906000526020600020900160005b50548314156103d157600191505b5b5b8080600101915050610344565b60036001600380549050038154811015156103f757fe5b906000526020600020900160005b5060009055600380548091906001900361041f9190611037565b5060026000848152602001908152602001600020600080820160006101000a81549073ffffffffffffffffffffffffffffffffffffffff02191690556001820160006101000a81549073ffffffffffffffffffffffffffffffffffffffff02191690556002820160009055600382016000905550505b5b505050565b6000809054906101000a900473ffffffffffffffffffffffffffffffffffffffff1673ffffffffffffffffffffffffffffffffffffffff163373ffffffffffffffffffffffffffffffffffffffff161415156104f657600080fd5b60018060008373ffffffffffffffffffffffffffffffffffffffff1673ffffffffffffffffffffffffffffffffffffffff16815260200190815260200160002060009054906101000a900460ff1660ff1614156105ea576000600160008373ffffffffffffffffffffffffffffffffffffffff1673ffffffffffffffffffffffffffffffffffffffff16815260200190815260200160002060006101000a81548160ff021916908360ff1602179055508073ffffffffffffffffffffffffffffffffffffffff167f58619076adf5bb0943d100ef88d52d7c3fd691b19d3a9071b555b651fbf418da60405160405180910390a25b5b5b50565b6105f7611063565b6000809054906101000a900473ffffffffffffffffffffffffffffffffffffffff1673ffffffffffffffffffffffffffffffffffffffff163373ffffffffffffffffffffffffffffffffffffffff1614806106a0575060018060003373ffffffffffffffffffffffffffffffffffffffff1673ffffffffffffffffffffffffffffffffffffffff16815260200190815260200160002060009054906101000a900460ff1660ff16145b15156106ab57600080fd5b813073ffffffffffffffffffffffffffffffffffffffff1631101515156106d157600080fd5b6004600081548092919060010191905055506080604051908101604052803373ffffffffffffffffffffffffffffffffffffffff1681526020018473ffffffffffffffffffffffffffffffffffffffff168152602001838152602001600081525090508060026000600454815260200190815260200160002060008201518160000160006101000a81548173ffffffffffffffffffffffffffffffffffffffff021916908373ffffffffffffffffffffffffffffffffffffffff16021790555060208201518160010160006101000a81548173ffffffffffffffffffffffffffffffffffffffff021916908373ffffffffffffffffffffffffffffffffffffffff16021790555060408201518160020155606082015181600301559050506003805480600101828161080391906110b8565b916000526020600020900160005b600454909190915055508060400151816020015173ffffffffffffffffffffffffffffffffffffffff16826000015173ffffffffffffffffffffffffffffffffffffffff167f41d8c89c4a25824354aa1f198d80d06f2f93f903a2d180d1ea20429a4678c4a46004546040518082815260200191505060405180910390a45b5b505050565b6000809054906101000a900473ffffffffffffffffffffffffffffffffffffffff1673ffffffffffffffffffffffffffffffffffffffff163373ffffffffffffffffffffffffffffffffffffffff16148061093f575060018060003373ffffffffffffffffffffffffffffffffffffffff1673ffffffffffffffffffffffffffffffffffffffff16815260200190815260200160002060009054906101000a900460ff1660ff16145b151561094a57600080fd5b80803073ffffffffffffffffffffffffffffffffffffffff16311015151561097157600080fd5b3373ffffffffffffffffffffffffffffffffffffffff166108fc839081150290604051600060405180830381858888f1935050505015156109b157600080fd5b5b5b505b50565b60008060009054906101000a900473ffffffffffffffffffffffffffffffffffffffff1673ffffffffffffffffffffffffffffffffffffffff163373ffffffffffffffffffffffffffffffffffffffff161480610a63575060018060003373ffffffffffffffffffffffffffffffffffffffff1673ffffffffffffffffffffffffffffffffffffffff16815260200190815260200160002060009054906101000a900460ff1660ff16145b1515610a6e57600080fd5b600260008381526020019081526020016000209050600073ffffffffffffffffffffffffffffffffffffffff168160000160009054906101000a900473ffffffffffffffffffffffffffffffffffffffff1673ffffffffffffffffffffffffffffffffffffffff1614151515610ae357600080fd5b8060000160009054906101000a900473ffffffffffffffffffffffffffffffffffffffff1673ffffffffffffffffffffffffffffffffffffffff163373ffffffffffffffffffffffffffffffffffffffff1614151515610b4257600080fd5b60008160040160003373ffffffffffffffffffffffffffffffffffffffff1673ffffffffffffffffffffffffffffffffffffffff16815260200190815260200160002060009054906101000a900460ff1660ff16141515610ba257600080fd5b60018160040160003373ffffffffffffffffffffffffffffffffffffffff1673ffffffffffffffffffffffffffffffffffffffff16815260200190815260200160002060009054906101000a900460ff1650508060030160008154809291906001019190505550813373ffffffffffffffffffffffffffffffffffffffff167fac63e7e1dc16bccf900879686e74ca33eeb175b670e3aaa9d7e4ccf3781b7a7a60405160405180910390a360028160030154101515610da95780600201543073ffffffffffffffffffffffffffffffffffffffff163110151515610c8557600080fd5b8060010160009054906101000a900473ffffffffffffffffffffffffffffffffffffffff1673ffffffffffffffffffffffffffffffffffffffff166108fc82600201549081150290604051600060405180830381858888f193505050501515610ced57600080fd5b80600201548160010160009054906101000a900473ffffffffffffffffffffffffffffffffffffffff1673ffffffffffffffffffffffffffffffffffffffff168260000160009054906101000a900473ffffffffffffffffffffffffffffffffffffffff1673ffffffffffffffffffffffffffffffffffffffff167f394c4e679790fab24fd86614fd812811c9c835e4c475bdfc3d26fd0d6f7ca6fd856040518082815260200191505060405180910390a4610da882610284565b5b5b5b5050565b6000809054906101000a900473ffffffffffffffffffffffffffffffffffffffff1673ffffffffffffffffffffffffffffffffffffffff163373ffffffffffffffffffffffffffffffffffffffff16141515610e0a57600080fd5b6000600160008373ffffffffffffffffffffffffffffffffffffffff1673ffffffffffffffffffffffffffffffffffffffff16815260200190815260200160002060009054906101000a900460ff1660ff161415610efe5760018060008373ffffffffffffffffffffffffffffffffffffffff1673ffffffffffffffffffffffffffffffffffffffff16815260200190815260200160002060006101000a81548160ff021916908360ff1602179055508073ffffffffffffffffffffffffffffffffffffffff167f994a936646fe87ffe4f1e469d3d6aa417d6b855598397f323de5b449f765f0c360405160405180910390a25b5b5b50565b60003073ffffffffffffffffffffffffffffffffffffffff163190505b90565b610f2b6110e4565b6000809054906101000a900473ffffffffffffffffffffffffffffffffffffffff1673ffffffffffffffffffffffffffffffffffffffff163373ffffffffffffffffffffffffffffffffffffffff161480610fd4575060018060003373ffffffffffffffffffffffffffffffffffffffff1673ffffffffffffffffffffffffffffffffffffffff16815260200190815260200160002060009054906101000a900460ff1660ff16145b1515610fdf57600080fd5b600380548060200260200160405190810160405280929190818152602001828054801561102b57602002820191906000526020600020905b815481526020019060010190808311611017575b505050505090505b5b90565b81548183558181151161105e5781836000526020600020918201910161105d91906110f8565b5b505050565b608060405190810160405280600073ffffffffffffffffffffffffffffffffffffffff168152602001600073ffffffffffffffffffffffffffffffffffffffff16815260200160008152602001600081525090565b8154818355818115116110df578183600052602060002091820191016110de91906110f8565b5b505050565b602060405190810160405280600081525090565b61111a91905b808211156111165760008160009055506001016110fe565b5090565b905600a165627a7a72305820a15d8944b189b3d389aa0e4106e625a3955582e1392688c8fd23764ebb9d3e050029",
  "source": "pragma solidity ^0.4.15;\n\ncontract MultiSigWallet {\n  address private _owner;\n  mapping(address => uint8) private _owners;\n\n  mapping (uint => Transaction) private _transactions;\n  uint[] private _pendingTransactions;\n\n  // auto incrememnting transaction ID\n  uint private _transactionIndex;\n  // constant: we need x amount of signatures to sign Transaction\n  uint constant MIN_SIGNATURES = 2;\n\n  struct Transaction {\n    address source;\n    address destination;\n    uint value;\n    //add how many people signed and who\n    uint signatureCount;\n    //need to keep record of who signed\n    mapping (address => uint8) signatures;\n  }\n\n  modifier isOwner() {\n    require(msg.sender == _owner);\n    _;\n  }\n\n  modifier validOwner() {\n    require(msg.sender == _owner || _owners[msg.sender] == 1);\n    _;\n  }\n\n  modifier enoughBalance(uint amount) {\n    require(address(this).balance >= amount);\n      _;\n  }\n\n\n  /// @dev logged events\n  event DepositFunds(address indexed source, uint indexed amount);\n  /// @dev full sequence of the transaction event logged\n  /// @notice only 3 arguments can have the 'indexed' type.\n  event TransactionCreated(address indexed source, address indexed destination, uint indexed value, uint transactionID);\n  event TransactionCompleted(address indexed source, address indexed destination, uint indexed value, uint transactionID);\n  /// @dev keeps track of who is signing the transactions\n  event TransactionSigned(address indexed by, uint indexed transactionID);\n\n  // added these as well\n  event OwnerAdded(address indexed addr);\n  event OwnerRemoved(address indexed addr);\n\n\n  /// @dev Contract constructor sets initial owners\n  function MultiSigWallet()\n  public\n  {\n    _owner = msg.sender;\n  }\n\n  /// @dev add new owner to have access, enables the ability to create more than one owner to manage the wallet\n  function addOwner(address newOwner)\n  isOwner\n  public\n  {\n    if (_owners[newOwner] == 0) {\n      _owners[newOwner] = 1;\n      OwnerAdded(newOwner);\n    }\n  }\n\n  /// @dev remove suspicious owners\n  function removeOwner(address existingOwner)\n  isOwner\n  public\n  {\n    if (_owners[existingOwner] == 1) {\n      _owners[existingOwner] = 0;\n      OwnerRemoved(existingOwner);\n    }\n  }\n\n  /// @dev Fallback function, which accepts ether when sent to contract\n  function ()\n  public\n  payable\n  {\n    DepositFunds(msg.sender, msg.value);\n  }\n\n  function withdraw(uint amount)\n  validOwner\n  enoughBalance(amount)\n  public\n  {\n    msg.sender.transfer(amount);\n  }\n\n  /// @dev Send ether to specific a transaction\n  /// @param destination Transaction target address.\n  /// @param value Transaction ether value.\n  ///\n  /// Start by creating your transaction. Since we defined it as a struct,\n  /// we need to define it in a memory context. Update the member attributes.\n  ///\n  /// note, keep transactionID updated\n  function transferTo(address destination, uint value)\n  validOwner\n  public\n  {\n    require(address(this).balance >= value);\n    _transactionIndex++;\n\n    //create the transaction\n    //YOUR CODE HERE\n    Transaction memory transaction = Transaction({\n      source: msg.sender,\n      destination: destination,\n      value: value,\n      signatureCount: 0\n    });\n\n\n    //add transaction to the data structures\n    _transactions[_transactionIndex] = transaction;\n    _pendingTransactions.push(_transactionIndex);\n\n    //log that the transaction was created to a specific address\n    TransactionCreated(transaction.source, transaction.destination, transaction.value, _transactionIndex);\n  }\n\n  //returns pending transcations\n  function getPendingTransactions()\n  validOwner\n  constant\n  public\n  returns (uint[])\n  {\n    return _pendingTransactions;\n  }\n\n  /// @dev Allows an owner to confirm a transaction.\n  /// @param transactionID Transaction ID.\n  /// Sign and Execute transaction.\n  function signTransaction(uint transactionID)\n  validOwner \n  public\n  {\n    //Use Transaction Structure. Above in TransferTo function, because\n    //we created the structure, we had to specify the keyword memory.\n    //Now, we are pulling in the structure from a storage mechanism\n    //Basically, 'storage' will stop the EVM from duplicating the actual\n    //object, and instead will reference it directly.\n\n    //Create variable transaction using storage (which creates a reference point)\n    //YOUR CODE HERE\n    Transaction storage transaction = _transactions[transactionID];\n\n    // Transaction must exist, note: use require(), but can't do require(transaction), .\n    //YOUR CODE HERE\n    require(transaction.source != address(0));\n\n    // Creator cannot sign the transaction, use require()\n    //YOUR CODE HERE\n    require(msg.sender != transaction.source);\n\n    // Cannot sign a transaction more than once, use require()\n    //YOUR CODE HERE\n    require(transaction.signatures[msg.sender] == 0);\n\n    // assign the transaction = 1, so that when the function is called again it will fail\n    //YOUR CODE HERE\n    transaction.signatures[msg.sender] == 1;\n\n    // increment signatureCount\n    //YOUR CODE HERE\n    transaction.signatureCount++;\n\n    // log transaction\n    //YOUR CODE HERE\n    TransactionSigned(msg.sender, transactionID);\n\n    //  check to see if transaction has enough signatures so that it can actually be completed\n    // if true, make the transaction. Don't forget to log the transaction was completed.\n    if (transaction.signatureCount >= MIN_SIGNATURES)\n    {\n      require(address(this).balance >= transaction.value); //validate transaction\n      //YOUR CODE HERE\n      transaction.destination.transfer(transaction.value);\n\n      //log that the transaction was complete\n      //YOUR CODE HERE\n      TransactionCompleted(transaction.source, transaction.destination, transaction.value, transactionID);\n\n      //end with a call to deleteTransaction\n      deleteTransaction(transactionID);\n    }\n  }\n\n  /// @dev clean up function\n  function deleteTransaction(uint transactionId)\n  validOwner\n  public\n  {\n    uint8 replace = 0;\n    for (uint i = 0; i < _pendingTransactions.length; i++)\n    {\n      if (1 == replace)\n        _pendingTransactions[i-1] = _pendingTransactions[i];\n      else if (transactionId == _pendingTransactions[i])\n        replace = 1;\n    }\n    delete _pendingTransactions[_pendingTransactions.length - 1];\n    _pendingTransactions.length--;\n    delete _transactions[transactionId];\n  }\n\n  /// @return Returns balance\n  function walletBalance()\n  constant\n  public \n  returns (uint)\n  {\n    return address(this).balance;\n  }\n}\n",
  "sourcePath": "/home/dengron/Desktop/mathimata/blockchain/coding/project/lab5-test/lab5/contracts/MultiSigWallet.sol",
  "compiler": {
    "name": "solc",
    "version": "0.4.15+commit.bbb8e64f.Emscripten.clang"
  },
  "schemaVersion": "3.4.3",
  "updatedAt": "2022-01-20T18:51:12.903Z",
  "networkType": "ethereum",
  "devdoc": {
    "methods": {
      "addOwner(address)": {
        "details": "add new owner to have access, enables the ability to create more than one owner to manage the wallet"
      },
      "deleteTransaction(uint256)": {
        "details": "clean up function"
      },
      "removeOwner(address)": {
        "details": "remove suspicious owners"
      },
      "signTransaction(uint256)": {
        "details": "Allows an owner to confirm a transaction.",
        "params": {
          "transactionID": "Transaction ID. Sign and Execute transaction."
        }
      },
      "transferTo(address,uint256)": {
        "details": "Send ether to specific a transaction",
        "params": {
          "destination": "Transaction target address.",
          "value": "Transaction ether value.   /// Start by creating your transaction. Since we defined it as a struct, we need to define it in a memory context. Update the member attributes.   /// note, keep transactionID updated"
        }
      },
      "walletBalance()": {
        "return": "Returns balance"
      }
    }
  },
  "userdoc": {
    "methods": {}
  }
}